:020000040800F2
:10000000B005002001010008ED1900087118000872
:10001000E91900086D010008CD1F0008000000006C
:10002000000000000000000000000000191A000895
:100030000904000800000000EF1900081B1A00085E
:100040001B0100081B0100081B0100081B01000820
:100050001B0100081B0100081B0100081B01000810
:100060001B0100081B0100081B0100081B01000800
:100070001B0100081B0100081B0100081B010008F0
:100080001B0100081B0100081B0100081B010008E0
:100090001B0100081B0100081B0100081B010008D0
:1000A0001B0100081B0100081B0100081B010008C0
:1000B000E51A00081B0100081B0100081B010008CD
:1000C0001B0100081B0100081B0100081B010008A0
:1000D0001B010008A51F0008B91F00081B0100082C
:1000E0001B0100081B0100081B010008DFF80CD0F1
:1000F00000F02AF80048004731220008B00500202F
:100100000648804706480047FEE7FEE7FEE7FEE7B1
:10011000FEE7FEE7FEE7FEE7FEE7FEE78D1A0008D2
:10012000ED000008D2B201E000F8012B491EFBD21D
:1001300070470022F6E710B513460A4604461946F2
:10014000FFF7F0FF204610BD064C074D06E0E068C3
:1001500040F0010394E8070098471034AC42F6D30E
:10016000FFF7C8FFAC260008CC26000800BFFEE75A
:100170002D48007820B101281CD002284ED133E050
:100180002948407820B1012806D002280CD107E088
:100190000020254988700BE003202349887007E080
:1001A00004202149887003E000201F49887000BFA7
:1001B00000BF37E01C48407820B1012806D0022853
:1001C0000CD107E00120184988700BE00520164982
:1001D000887007E006201449887003E00020124967
:1001E000887000BF00BF1DE00F48407820B1012893
:1001F00006D002280CD107E002200B4988700BE0E2
:1002000007200949887007E008200749887003E043
:1002100000200549887000BF00BF03E000200249AC
:10022000887000BF00BF7047860000201948006832
:100230004000052190FBF1F017490860174800685D
:100240004000052190FBF1F0154908601248006854
:10025000B0F5C87F03DB4FF4C8700F490860104841
:100260000068B0F5C87F03DB4FF4C8700C49086024
:100270000948006810F5C87F02DC0A480649086092
:100280000748006810F5C87F02DC0648044908608A
:1002900070470000440000203C000020480000207F
:1002A0004000002070FEFFFF51488078092875D279
:1002B000DFE800F0050B141F2933425162000020D3
:1002C0004C4908604C4908606EE04C480068494958
:1002D00008604A4800684849086065E04748006887
:1002E000404244490860454800684042424908602D
:1002F0005AE04348006840423E4908604048006870
:100300003D49086050E03E4800683A4908603C4872
:10031000006840423849086046E03848006838497B
:100320000968401A3349086034480068344909684C
:1003300008443149086037E03048006830490968AE
:1003400008442C4908602D4800682D490968401A66
:100350002949086028E0294800684042284909687E
:100360000844244908602548006840422449096837
:10037000401A2149086017E020480068404220499F
:100380000968401A1B4908601C48006840421C4923
:10039000096808441849086006E0FFE7002015498D
:1003A00008601549086000BF00BF12480068B0F53A
:1003B0007A7F03DB4FF47A700E4908600E480068BC
:1003C000B0F57A7F03DB4FF47A700B490860094877
:1003D000006810F57A7F02DC0A4806490860064882
:1003E000006810F57A7F02DC064803490860704710
:1003F0008600002044000020480000204C0000201F
:100400005000002018FCFFFF7047704770B504468D
:10041000002594F82100022803D00420A0630125C0
:1004200048E02068006820F00E002168086020681D
:10043000006820F00100216808601F492068884298
:1004400001D1012026E01C4914312068884201D1E5
:1004500010201FE0184928312068884201D18015FA
:1004600018E015493C312068884201D1801411E020
:10047000114950312068884202D14FF4803009E0A0
:100480000D4964312068884202D14FF4801001E0A8
:100490004FF08070084908394860012084F8210035
:1004A00000BF002084F8200000BF606B10B1204620
:1004B000616B8847284670BD0800024070B504464D
:1004C00000F0A6F906462546681C10B104480078DD
:1004D000054400BF00F09CF9801BA842FAD370BD10
:1004E0006C0000202DE9F8470346002294466EE197
:1004F0004FF0010808FA02F4D1F8008008EA04007D
:10050000A0427DD1DFF8DCA2D1F80480A8EB0A0973
:10051000D0453AD014DCB8F1030F50D009DCB8F163
:10052000000F31D0B8F1010F1CD0B8F1020F49D142
:1005300020E0B8F1110F18D0B8F1120F42D11EE02F
:10054000B9F5881F25D006DCB9F5803F20D0B9F574
:10055000801F37D11AE0B9F5001F18D0B9F5041F74
:1005600030D117E0D1F80CC02DE0D1F80C8008F1A3
:10057000040C28E0D1F80C8008F1080C23E0D1F835
:100580000C8008F10C0C1EE000BF00BF00BF00BFD4
:1005900000BF00BFD1F80880B8F1000F02D14FF0C2
:1005A000040C0BE0D1F80880B8F1010F03D14FF033
:1005B000080C1C6102E04FF0080C5C6103E04FF096
:1005C000000C00E000BF00BFFF2801D8984601E002
:1005D00003F104084646FF2802D84FEA820803E0E8
:1005E000A2F108084FEA88084746D6F800804FF085
:1005F0000F0909FA07F928EA09080CFA07F900E0D7
:1006000088E048EA0908C6F80080D1F8048008F0BC
:100610008058B8F1805F7DD100BFDFF8CC81D8F879
:10062000188048F00108DFF8C091C9F81880C84662
:10063000D8F8188008F00108CDF8008000BF00BF8E
:100640004FEAB9384FEA920958F829504FEA8278B0
:100650004FEA18794FF00F0808FA09F825EA08055B
:10066000DFF88881434502D14FF0000816E0DFF83B
:100670008081434502D14FF001080FE0DFF874811B
:10068000434502D14FF0020808E0DFF86C81434592
:1006900002D14FF0030801E04FF004084FEA8279DD
:1006A0004FEA197908FA09F848EA0505DFF84C819C
:1006B0004FEA920948F82950D1F8048008F48038AC
:1006C000B8F5803F0AD1DFF83881D8F8008048EAD1
:1006D0000008DFF82C91C9F8008009E0DFF82081DC
:1006E000D8F8008028EA0008DFF81491C9F80080E3
:1006F000D1F8048008F40038B8F5003F10D1DFF8D5
:10070000008108F10408D8F8008048EA0008DFF802
:10071000F09000E05AE009F10409C9F800800DE00A
:10072000DFF8DC8008F10408D8F8008028EA000827
:10073000DFF8CC9009F10409C9F80080D1F80480F1
:1007400008F48018B8F5801F0ED1DFF8B48008F1E6
:100750000808D8F8008048EA0008DFF8A49009F1FA
:100760000809C9F800800DE0DFF8948008F1080856
:10077000D8F8008028EA0008DFF8849009F1080919
:10078000C9F80080D1F8048008F40018B8F5001FFB
:100790000ED1DFF86C8008F10C08D8F8008048EA28
:1007A0000008DFF85C9009F10C09C9F800800DE041
:1007B000DFF84C8008F10C08D8F8008028EA00081F
:1007C000DFF83C9009F10C09C9F80080521CD1F8FF
:1007D000008028FA02F8B8F1000F7FF489AEBDE876
:1007E000F8870000000011100010024000080140CE
:1007F000000C0140001001400014014008000140BD
:10080000000401400AB1016101E00B04036170477B
:100810000148006870470000640000200348006839
:1008200003490978084401490860704764000020C2
:100830006C00002010B50848006840F01000064920
:100840000860032000F0A8F8002000F007F800F08E
:100850002BF8002010BD00000020024070B50446B7
:100860000E4800784FF47A71B1FBF0F00C4909683A
:10087000B1FBF0F5284600F00BFC08B1012070BD7B
:10088000102C07D200222146501E00F047F80548E0
:10089000046001E00120F2E70020F0E76C00002096
:1008A000700000206800002008B500BF1148806972
:1008B00040F001000F4988610846806900F001009E
:1008C000009000BF00BF00BF0846C06940F08050E4
:1008D000C8610846C06900F08050009000BF00BFAA
:1008E00000BF0549486820F0E06040F000704860B3
:1008F00000BF08BD0010024000000140014608464C
:10090000002809DB00F01F0301229A4043099B00E5
:1009100003F1E023C3F8002100BF70472DE9F05F29
:1009200080460D461646002701F052FB0746394621
:100930002A46334601F00700C0F1070ABAF1040F56
:1009400002D94FF0040A01E0C0F1070AD14600F1D4
:10095000040ABAF1070F02D24FF0000A01E0A0F139
:10096000030AD4464FF0010A0AFA09FAAAF1010A69
:100970000AEA020A0AFA0CFA4FF0010B0BFA0CFB16
:10098000ABF1010B0BEA030B4AEA0B04214640468C
:1009900001F026FBBDE8F09F00BF00F00702064B08
:1009A00019684FF6FF031940044B0B4343EA022139
:1009B000014B196000BF70470CED00E00000FA0524
:1009C00070B504460D460CB9012070BD5A48006848
:1009D00000F00700A8420ED25748006820F0070038
:1009E0002843554908600846006800F00700A842FF
:1009F00001D00120E9E7207800F0020002281DD193
:100A0000207800F00400042805D14C48406840F4E8
:100A1000E0604A494860207800F00800082805D1C5
:100A20004648406840F46050444948604348406844
:100A300020F0F000A168084340494860207800F0A9
:100A4000010078B36068012806D13C48006800F4D2
:100A5000003090B90120B8E76068022806D1374815
:100A6000006800F0007040B90120AEE7334800682C
:100A700000F0020008B90120A7E73048406820F0E4
:100A80000300616808432D494860FFF7C1FE064630
:100A900009E0FFF7BDFE801B41F28831884202D990
:100AA000032092E707E02548406800F00C006168E9
:100AB000B0EB810FEDD12048006800F00700A8429C
:100AC0000ED91D48006820F0070028431A49086025
:100AD0000846006800F00700A84201D0012074E732
:100AE000207800F00400042807D11448406820F45E
:100AF000E060E168084311494860207800F0080090
:100B0000082808D10D48406820F46050216940EA67
:100B1000C1000A49486000F03FF808494968C1F33C
:100B20000311074A515CC84006490860064800683E
:100B3000FFF794FE002048E700200240001002402A
:100B4000942600087000002068000020014800681A
:100B5000704700007000002000B5FFF7F7FF044960
:100B60004968C1F30221034A515CC84000BD00003E
:100B700000100240A426000800B5FFF7E7FF044973
:100B80004968C1F3C221034A515CC84000BD00005E
:100B900000100240A4260008F0B585B00FF26C0CDE
:100BA0009CE8E01001A8A0E8E0101CA52D680095C5
:100BB00000210022002300240020194D696801F063
:100BC0000C05F5B1042D02D0082D19D101E015480E
:100BD00019E001ADC1F38346AC5D01F4803555B138
:100BE0000F4D6D68C5F340451DF805200D4D65435B
:100BF000B5FBF2F302E00C4D04FB05F3184602E0EE
:100C000000BF084800BF00BF05B0F0BD02030405E7
:100C1000060708090A0B0C0D0E0F10100102000048
:100C20000010024000127A0000093D00F8B50446A9
:100C30000CB90120F8BD207800F00100002878D020
:100C4000F848406800F00C0004280CD0F5484068D3
:100C500000F00C00082811D1F248406800F4803000
:100C6000B0F5803F0AD1EF48006800F4003000285A
:100C70005FD0606800285CD10120DBE700BF6068BE
:100C8000B0F5803F06D1E748006840F48030E54980
:100C9000086028E0606858B9E248006820F48030B5
:100CA000E04908600846006820F4802008601AE0E7
:100CB0006068B0F5A02F0BD1DA48006840F48020BE
:100CC000D84908600846006840F4803008600AE0AF
:100CD000D448006820F48030D24908600846006893
:100CE00020F48020086000BF606888B1FFF790FDA5
:100CF000054606E0FFF78CFD401B642801D9032060
:100D000098E7C848006800F400300028F2D010E0EE
:100D1000FFF77EFD054606E0FFF77AFD401B6428DD
:100D200001D9032086E7BF48006800F4003000289E
:100D3000F2D1207800F00200022857D1B94840686B
:100D400000F00C0050B1B748406800F00C000828D3
:100D500018D1B448406800F4803098B9B1480068B0
:100D600000F0020020B12069012801D0012061E7D4
:100D7000AC48006820F0F800616940EAC100A94968
:100D8000086033E02069E8B10120A7490860FFF757
:100D90003FFD054606E0FFF73BFD401B022801D959
:100DA000032047E79F48006800F002000028F2D0C7
:100DB0009C48006820F0F800616940EAC100994948
:100DC000086013E0002098490860FFF721FD054600
:100DD00006E0FFF71DFD401B022801D9032029E78B
:100DE0009048006800F002000028F2D1207800F05E
:100DF000080008282DD1A069B8B101208B490860EE
:100E0000FFF706FD054606E0FFF702FD401B02283E
:100E100001D903200EE78348406A00F00200002851
:100E2000F2D0012000F0E4FD13E000207F490860CB
:100E3000FFF7EEFC054606E0FFF7EAFC401B022840
:100E400001D90320F6E67748406A00F00200002846
:100E5000F2D1207800F00400042873D100277148F3
:100E6000C06900F0805070B900BF6E48C06940F0A2
:100E700080506C49C8610846C06900F080500090FD
:100E800000BF00BF01276A48006800F48070B0B955
:100E90006748006840F4807065490860FFF7B8FC57
:100EA000054606E0FFF7B4FC401B642801D9032087
:100EB000C0E65F48006800F480700028F2D000BFF0
:100EC000E068012806D15748006A40F00100554902
:100ED000086227E0E06858B95248006A20F0010033
:100EE000504908620846006A20F00400086219E0D0
:100EF000E06805280BD14B48006A40F004004949DE
:100F000008620846006A40F0010008620AE04548AD
:100F1000006A20F00100434908620846006A20F098
:100F20000400086200BFE068A0B1FFF771FC05464D
:100F300009E0FFF76DFC401B41F28831884202D97D
:100F4000032077E622E03748006A00F0020000281C
:100F5000EFD012E0FFF75CFC054608E0FFF758FC15
:100F6000401B41F28831884201D9032062E62D48B6
:100F7000006A00F002000028F0D1012F05D12948B5
:100F8000C06920F080502749C86100BFE069C8B33C
:100F90002448406800F00C00082860D0E06902286E
:100FA00048D1002020490866FFF732FC054606E0DC
:100FB000FFF72EFC401B022801D903203AE619480E
:100FC000006800F000700028F2D1206AB0F5803F80
:100FD00007D11448406820F40030A1680843114943
:100FE0004860D4E9080108430E49496821F47411A6
:100FF00008430C49486001200B490866FFF708FCCC
:10100000054607E03DE0FFF703FC401B022801D93D
:1010100003200FE60348006800F000700028F2D0BB
:101020002FE00000001002400000424280044242D3
:1010300000700040002014490866FFF7E9FB0546F0
:1010400006E0FFF7E5FB401B022801D90320F1E58C
:101050000E48006800F000700028F2D111E0E0694D
:10106000012800D1E6E50948466806F48031206A87
:10107000814204D106F47011606A814201D00120DE
:10108000D8E50020D6E500000000424200100240F2
:1010900070B504462546681EB0F1807F01D301205B
:1010A0000FE0681E4FF0E02148610F214FF0FF3044
:1010B00000F096FF00204FF0E021886107200861D2
:1010C000002070BD7047704710B5024600BF92F80F
:1010D0003C00012801D1022010BD012082F83C0013
:1010E00000BF022082F83D001068436810688468E1
:1010F00023F070030868034324F080044868044325
:101100001068436010688460012082F83D0000BFD1
:10111000002082F83C0000BF00BFDDE70146086800
:10112000C06840F001000B68D8600868806800F073
:101130000702062A05D00868006840F001000B6825
:10114000186000207047000010B504461849206858
:10115000096888422AD1207F012806D1002114483D
:1011600000F000FA1349C88020E0207F02280CD14B
:1011700004210F4800F0F6F90E49088101F0A2F8A9
:1011800000200B490968486210E0207F042805D13F
:1011900009480068401C0849086007E0207F0828CB
:1011A00004D106480068401C0449086010BD0000D6
:1011B000F0000020860000202C00002030000020DD
:1011C0002DE9F04104460D46164600BF94F83C0058
:1011D000012802D10220BDE8F081012084F83C0002
:1011E00000BF022084F83D0096B9EB68D5E90012F3
:1011F000206800F0CBFC2068806920F00C0021689A
:10120000886120688069A9680843216888613DE099
:10121000042E13D1EB68D5E90012206800F0EAFC37
:101220002068806920F440602168886120688069B6
:10123000A96840EA01202168886127E0082E12D1C0
:10124000EB68D5E90012206800F0F1FC2068C06965
:1012500020F00C002168C8612068C069A9680843B3
:101260002168C86112E0EB68D5E90012206800F03F
:10127000FAFC2068C06920F440602168C8612068D9
:10128000C069A96840EA01202168C861012084F88A
:101290003D0000BF002084F83C0000BF00BF9AE77B
:1012A00010B504460CB9012010BD94F83D0028B9D2
:1012B000002084F83C00204600F00CF8022084F85E
:1012C0003D00211D206800F015FC012084F83D0040
:1012D0000020E9E710B586B0044600200290039094
:1012E000049005902068B0F1804F2BD100BF1648C4
:1012F000C06940F001001449C8610846C06900F0A7
:101300000100019000BF00BF00BF0846806940F0A7
:10131000040088610846806900F00400019000BF65
:1013200000BF0120029000200390049002A907480A
:10133000FFF7D8F8002211461C20FFF7EFFA1C2017
:10134000FFF7DCFA06B010BD0010024000080140B3
:1013500070B504460D4635B1042D0BD0082D10D0C4
:101360000C2D1CD114E02068C06840F002002168F8
:10137000C86015E02068C06840F004002168C860BB
:101380000EE02068C06840F008002168C86007E0EF
:101390002068C06840F010002168C86000E000BF0D
:1013A00000BF01222946206800F0DEFB206880682B
:1013B00000F00706062E05D02068006840F0010006
:1013C00021680860002070BD10B5044620680069DF
:1013D000C0F34000D8B12068C068C0F34000B0B18D
:1013E0006FF0020021680861012020772068806981
:1013F00000F0030018B12046FFF7A6FE05E02046E6
:1014000000F0ADF8204600F0ABF80020207720680F
:101410000069C0F38000D8B12068C068C0F38000C4
:10142000B0B16FF0040021680861022020772068C5
:10143000806900F4407018B12046FFF785FE05E092
:10144000204600F08CF8204600F08AF80020207733
:1014500020680069C0F3C000D8B12068C068C0F33C
:10146000C000B0B16FF00800216808610420207747
:101470002068C06900F0030018B12046FFF764FE41
:1014800005E0204600F06BF8204600F069F80020E7
:10149000207720680069C0F30010D8B12068C068C8
:1014A000C0F30010B0B16FF010002168086108208F
:1014B00020772068C06900F4407018B12046FFF71B
:1014C00043FE05E0204600F04AF8204600F048F8C8
:1014D000002020772068006900F0010058B12068E2
:1014E000C06800F0010030B16FF0010021680861B0
:1014F000204600F036F820680069C0F3C01058B1EB
:101500002068C068C0F3C01030B16FF0800021685F
:1015100008612046FFF7D6FD20680069C0F38010FF
:1015200058B12068C068C0F3801030B16FF040003F
:1015300021680861204600F02EF820680069C0F399
:10154000401058B12068C068C0F3401030B16FF04F
:101550002000216808612046FFF7B5FD10BD7047E7
:10156000704770470246002031B1042907D008298E
:1015700008D00C290CD108E01368586B09E01368F7
:10158000986B06E01368D86B03E01368186C00E0F2
:1015900000BF00BF70477047704700002DE9F0475B
:1015A0000446206805682068C668206847694FF0CF
:1015B0000008C14605F00F08B8F1000F0AD105F088
:1015C000200038B106F0200020B1204600F093FB47
:1015D000BDE8F087B8F1000F6DD007F0010018B931
:1015E00006F49070002866D005F0010030B106F4D2
:1015F000807018B1E06B40F00100E06305F004007A
:1016000030B107F0010018B1E06B40F00200E06378
:1016100005F0020030B107F0010018B1E06B40F0B6
:101620000400E06305F0080030B107F0010018B1D4
:10163000E06B40F00800E063E06B68B305F0200069
:1016400028B106F0200010B1204600F054FB2068BD
:101650004069C0F38019E06B00F0080010B9B9F1DF
:10166000000F22D0204600F026FB2068406900F0E1
:101670004000B0B12068406920F040002168486116
:10168000606B50B11748616B4863606BFEF7BEFE3C
:1016900010B1606B416B88470CE02046FFF77CFF80
:1016A00008E02046FFF778FF04E02046FFF774FFCC
:1016B0000020E0638CE705F0800030B106F0800088
:1016C00018B1204600F03AFC82E705F0400030B146
:1016D00006F0400018B1204600F0FDFA78E700BFA0
:1016E00076E70000A31C000810B504460CB90120E1
:1016F00010BDA06900B100E000BF94F8390028B91E
:10170000002084F83800204600F028F8242084F8CF
:1017100039002068C06820F400502168C860204665
:1017200000F03CFB2068006920F4904021680861CB
:101730002068406920F02A00216848612068C0685C
:1017400040F400502168C8600020E063202084F845
:10175000390084F83A000020CAE7000010B586B0CE
:101760000446002002900390049005903B492068B5
:10177000884237D100BF3A48806940F480403849F8
:1017800088610846806900F48040019000BF00BF76
:1017900000BF0846806940F00400886108468069FF
:1017A00000F00400019000BF00BF48150290022025
:1017B00003900320059002A92A48FEF793FE4FF4F8
:1017C0008060029000200390049002A92548FEF753
:1017D00089FE002211462520FFF7A0F82520FFF7FB
:1017E0008DF839E020492068884235D100BF1C4877
:1017F000C06940F400301A49C8610846C06900F465
:101800000030019000BF00BF00BF0846806940F073
:10181000040088610846806900F00400019000BF60
:1018200000BF04200290022003900320059002A92B
:101830000C48FEF757FE0820029000200390049009
:1018400002A90848FEF74EFE002211462620FFF7A7
:1018500065F82620FFF752F806B010BD00380140A9
:1018600000100240000801400044004070477047EB
:1018700000BFFEE700B585B0002001900290039004
:10188000049000BF1748806940F020001549886126
:101890000846806900F02000009000BF00BF00BF34
:1018A0000846806940F0040088610846806900F0BD
:1018B0000400009000BF00BF00224FF404610A48FA
:1018C000FEF7A0FF4FF40460019001200290002079
:1018D00003900220049001A90348FEF703FE05B01F
:1018E00000BD0000001002400008014000B587B0B4
:1018F00000200590069001900290039004904FF014
:1019000080401C4908602F204860002119488160F0
:101910004FF6FF71C160002101618161FFF7C0FCDA
:1019200008B1FEF772FD00200590069005A9114848
:10193000FFF7CAFB08B1FEF768FD00200190012007
:101940000290002003900490002201A90948FFF7AB
:1019500037FC08B1FEF759FD0220019002900422E5
:1019600001A90448FFF72CFC08B1FEF74EFD07B0B3
:1019700000BD0000F000002010B50B480B490860C6
:101980004FF4E1304860002108488160C160016186
:101990000C21416100218161C161FFF7A5FE08B101
:1019A000FEF733FD10BD000000380140300100207B
:1019B00010B50B480B4908604FF4E1304860002136
:1019C00008488160C16001610C2141610021816191
:1019D000C161FFF789FE08B1FEF717FD10BD0000D9
:1019E000004400407001002000BFFEE770477047D0
:1019F00008B508490968C9084FF47A72B1FBF2F1D9
:101A00004143009100BF00BF00994A1E0092002987
:101A1000F9D108BD70000020704710B5FEF7FEFE3A
:101A200000F012FE10BD00B58FB0282105A8FEF70A
:101A300080FB14216846FEF77CFB01200590000422
:101A40000690002007900120099002200C90C1030D
:101A50000D91C1040E9105A8FFF7E8F808B1FEF753
:101A6000D4FC0F20009002200190002002904FF43F
:101A7000806003900020049001216846FEF7A0FFDB
:101A800008B1FEF7C2FC0FB000BD000011480068AD
:101A900040F001000F490860084640680E490840C0
:101AA0000C494860084600680C490840094908602C
:101AB0000846006820F4802008600846406820F44A
:101AC000FE0048604FF41F008860C80304490860A6
:101AD00070470000001002400000FFF8FFFFF6FE14
:101AE00008ED00E010B50248FFF76EFC10BD0000E5
:101AF000F000002010B50268184B984208D0B0F1F1
:101B0000804F05D0164B984202D0164B984203D115
:101B100022F070024B681A43104B984208D0B0F183
:101B2000804F05D00E4B984202D00E4B984203D105
:101B300022F44072CB681A4322F080034C6943EAD6
:101B4000040202608B68C3620B688362034B984295
:101B500001D10B6903630123436110BD002C0140D7
:101B6000000400400008004030B501F01F050124CA
:101B700004FA05F3046A9C430462046A01F01F0539
:101B800002FA05F52C43046230BD000070B50C4626
:101B90001546066A26F0010606628169026A124E3F
:101BA000B04208D0B0F1804F05D0104EB04202D004
:101BB0000F4EB04201D1012600E000261EB121F0F7
:101BC0000301294301E041F0010121F0F001F02679
:101BD00006EA0316314322F00A0204F00A063243F1
:101BE0008161026270BD0000002C014000040040D1
:101BF0000008004070B50C461546066A26F010062F
:101C000006628169026A21F4407141EA052121F4EA
:101C100070414FF4704606EA0336314322F0A002C9
:101C2000A02606EA041632438161026270BD70B5D7
:101C30000C461546066A26F480760662C169026A79
:101C400021F00301294321F0F001F02606EA0316F2
:101C5000314322F400724FF4007606EA0426324340
:101C6000C161026270BD70B50C461546066A26F465
:101C700080560662C169026A21F4407141EA052179
:101C800021F470414FF4704606EA0336314322F4E2
:101C900000524FF4005606EA04363243C161026234
:101CA00070BD70B505466C6A0020E085E084204672
:101CB000FFF772FC70BD0168C96821F49071026879
:101CC000D1600168496921F0010102685161202158
:101CD00080F83A10704710B504462068C06820F0BC
:101CE00040002168C860202084F839002046FFF7B2
:101CF000BEFD002010BD70B5044694F83A002228BD
:101D00004AD1A068B0F5805F13D1A56A206940B9B7
:101D100020684068C0F308002880A06A801CA06288
:101D200019E020684068C0B22880A06A401CA06208
:101D300011E0206938B920684068C1B2A26A501C1D
:101D4000A062117007E02068406800F07F01A26A7D
:101D5000501CA0621170E08D401E80B2E085C8B9B1
:101D60002068C06820F020002168C8602068C06832
:101D700020F480702168C8602068406920F001006C
:101D800021684861202084F83A002046FFF76EFD64
:101D9000002070BD0020FCE70220FAE770B5044681
:101DA0002168096921F44051E268114322681161F8
:101DB0002269A1681143626941EA02052168C96884
:101DC00041F20C62914329432268D160216849693C
:101DD00021F44071A269114322685161564A216879
:101DE000914254D1FEF7C8FE00EBC00101EB001197
:101DF00062689200B1FBF2F100EBC00202EB00124C
:101E000063689B00B2FBF3F26423B2FBF3F202EBD4
:101E1000C20303EB0212A1EB8201322202EB011199
:101E20006422B1FBF2F101F0F00100EBC00202EB21
:101E3000001263689B00B2FBF3F26423B2FBF3F27F
:101E400001EB021200EBC00101EB001163689B0083
:101E5000B1FBF3F100EBC00303EB00136668B600BF
:101E6000B3FBF6F36426B3FBF6F303EBC30606EB12
:101E70000313A1EB8301322303EB01116423B1FBB4
:101E8000F3F101F00F0111442268916053E0FEF775
:101E900063FE00EBC00101EB001162689200B1FB30
:101EA000F2F100EBC00202EB001263689B00B2FB90
:101EB000F3F26423B2FBF3F202EBC20303EB021270
:101EC000A1EB8201322202EB01116422B1FBF2F19B
:101ED00001F0F00100EBC00202EB001263689B000E
:101EE000B2FBF3F26423B2FBF3F201EB021200EB5C
:101EF000C00101EB001163689B00B1FBF3F100EB43
:101F0000C00303EB00136668B600B3FBF6F3642668
:101F1000B3FBF6F303EBC30606EB0313A1EB83015C
:101F2000322303EB01116423B1FBF3F101F00F0144
:101F300011442268916070BD00380140014691F85B
:101F4000390021282CD18868B0F5805F0FD10A6A4A
:101F50001088C0F308000B685860086918B9086A4F
:101F6000801C086209E0086A401C086205E00B6AF0
:101F7000581C086218780B685860C88C401E80B2E4
:101F8000C88458B90868C06820F080000B68D86021
:101F90000868C06840F040000B68D86000207047B7
:101FA0000220FCE710B500F077F80248FFF7F6FAD8
:101FB00010BD00003001002010B500F06DF802489F
:101FC000FFF7ECFA10BD00007001002000BFFEE733
:101FD00002480068C0F30220704700000CED00E0EA
:101FE00010B5002804DB0A07130E054A135406E057
:101FF0000A07140E034A00F00F031B1FD45410BD30
:1020000000E400E018ED00E002E008C8121F08C17B
:10201000002AFAD170477047002001E001C1121F69
:10202000002AFBD1704710B502460024002304E0CB
:10203000D05C2044C4B2581CC3B2481E9842F7DC9E
:10204000105CA04201D0002010BD0120FCE7000080
:1020500010B50D480D4B1B7883F001020AB90C49ED
:1020600000E00C494378847843EA04231BB20B80D8
:10207000C378047943EA04234B8043790B71837955
:102080004B71C3798B7110BDA80000205500002052
:10209000D0000020E000002070B55E4805680026F2
:1020A0005D48006800F00F0050B15B4800685B4974
:1020B0008873002058490860081D006857498873D4
:1020C0005548006800F02000002838D05348406A86
:1020D0002A1A66F100000021D2F10202814102D2E7
:1020E00000204E49C8614D484562C069092821D287
:1020F0004948001D0068C4B24848C169C069401C15
:10210000464AD06110464454C069012806D1012CCA
:1021100004D0022C02D000201146C8613F48C0699B
:1021200009280CD109213D48FFF77DFF38B1FFF7A1
:102130008FFF04E03848001D00683849887336482E
:102140000C3000683649084050B33348006820F02E
:1021500040003149086030480C3000683049C943BC
:1021600008402D490C31086000BF002240212D4855
:10217000FEF748FB28480C30006840F00400264970
:102180000C3108600846006820F008000860084626
:1021900000682349203908431F490C31086000BFFB
:1021A0001D480C3000681E494031084088B31B4868
:1021B000406905282DD21848006800F0800058B109
:1021C000164841694069401C144A506102F10900F7
:1021D000405C1149091D086010484069052818D164
:1021E0000D480C300068104908400B490C3108605C
:1021F0000E48007868B90848006820F04000064999
:10220000086005480C3000680549084302490C3154
:10221000086070BD1800002000440040A8000020A5
:1022200040000010000801407FFFFFEF5400002035
:10223000FEF700FBFFF7F7FBFFF71CFBFFF79CFB2C
:10224000FFF7B6FBFFF752FB00BF174800681749BE
:10225000084015490860012240211548FEF7D2FACE
:102260001148006840F008000F49086008460068FF
:1022700020F00400086000BF4FF4FA70FEF71EF96A
:1022800000F0F8F90FE0FDF773FFFEF70DF8FDF72A
:10229000CDFF0848006808490860084800680849F8
:1022A000086000F037F9EEE70C440040DFFFFFEF75
:1022B000000801405C0000203C000020600000207D
:1022C000400000208D4800898C49C988401A00B21E
:1022D0008B4908800846B0F9000040F6B8318842C2
:1022E00005DD012087490870002084490871854870
:1022F000007800B970478248008881B27F4802792F
:10230000103020F8121010380079092871D2DFE857
:1023100000F0050648889CA2BCC9D600DDE07848DC
:10232000B0F90000784908800846B0F90000B0F51F
:10233000FA7F03DA4FF4FA70088009E07248B0F9C6
:10234000000040F2AA51884202DD08466E4908802A
:102350006D48B0F90000B0F52F7F0ADA6A48B0F98D
:102360000000C0F52F70694908600120634948707A
:1023700016E06548B0F9000040F2E24188420ADD0B
:102380006148B0F90000A0F2E24060490860022014
:102390005A49487004E000205C4908605749487079
:1023A0009BE05748B0F9000057490880584800683A
:1023B000642803DA00205149087031E04F48007862
:1023C00020B1012816D0022828D11DE04E48B0F9CE
:1023D0000000B0F5167F02DA0120484908704A482B
:1023E000B0F90000B0F5AF6F02DD0220434908707C
:1023F00015E071E04448B0F90000B0F5AF6F02DDC0
:1024000002203E4908700AE03F48B0F90000B0F5EC
:10241000167F02DA01203949087000E000BF00BFD2
:102420005BE037480088A0F5FA7000B236490880B2
:102430000846B0F90000642801DA0020088032481C
:10244000B0F900003249086047E02D48B0F90000BB
:102450002D49088041E02948C08AB0F5C87F00DADC
:102460003BE02748B0F90000274908800846B0F94A
:102470000000B0F5167F07DB0846B0F9000040F217
:102480004C41884200DB00BF27E01D48B0F9000046
:102490001D4908800846B0F90000B0F5487F00DB10
:1024A00000BF1AE01648B0F9000017490880084636
:1024B000B0F90000B0F5487F00DB00BF0DE0104828
:1024C000B0F90000104908800846B0F90000B0F5E6
:1024D000167F00DB00BF00E000BF00BF07480079A7
:1024E000401C0649087108460079092804DB0020D1
:1024F000044908700149087100BFFBE6860000200E
:10250000100000200E0000201200002050000020CB
:102510004C00002010B5414C414800684149096811
:10252000401A0A2800D210BD3D4800683D490860A5
:1025300000BF3D4800683D4908403B490860012212
:1025400040213B48FEF75EF93748006840F008003C
:10255000354908600846006820F00400086000BFA4
:102560003448006834490968884216D1012033494B
:10257000087000202070012060702E480078A07044
:102580002C480088000AE070207861780844A1781F
:102590000844E1780844207133E00020274908709E
:1025A00027480078A0B90120207060702148007889
:1025B00000F0F000A0701F480088000AE07020784A
:1025C00061780844A1780844E1780844207112E059
:1025D000022020700120607017480078A070164813
:1025E0000088000AE070207861780844A1780844E7
:1025F000E178084420711248007880F00100104909
:1026000008700020054909394861074800680D49EC
:1026100008430549086000BF85E70000B1000020BD
:1026200018000020580000200C440040DFFFFFEF9E
:10263000000801403C000020400000205400002021
:10264000550000208000001010B5FEF7E1F80749A2
:1026500008600846006800F00300032805D104481C
:10266000007880F001000249087010BD18000020B9
:102670001400002010B50648FEF750FD0021044864
:10268000FEF766FE04210248FEF762FE10BD000060
:10269000F000002000000000000000000102030420
:1026A000060708090000000001020304CC26000808
:1026B00000000020740000000820000840270008E7
:1026C000740000203C0500001820000800000000F5
:1026D00000000000000000000000000000000000FA
:1026E00000000000000000000000000000000000EA
:1026F00000000000000000000000000000000000DA
:1027000000000000000000000000000000000000C9
:1027100000000000000000000000000000000000B9
:1027200000000000000000000000000000000000A9
:102730000000000010000000010000000024F40070
:04000005080000ED02
:00000001FF
